:100ACB0054656D703A004300486967683A00636D7E
:0C0ADB0000303132333435363738390002
:0C0AE700020F002802080000020D0000B1
:10046D00120C5E120B1B12000A120BD9120BAC12DE
:10047D000C3D7F647E00120BED120BD97BFF7A0AC7
:10048D0079CB7D017F01120A337BFF7A0A79D17D09
:10049D000F7F01120A337BFF7A0A79D37D017F0228
:1004AD00120A337BFF7A0A79D97D0F7F02120A3344
:1004BD00120C3D1209BA8F168E158D148C13E4FF94
:1004CD00FEFDFCAB16AA15A914A8131201B4501EFB
:1004DD007B2D7D077F01120C54AF16AE15AD14ACFC
:1004ED001312022D8F168E158D148C1380097B2BF4
:1004FD007D077F01120C54AF16AE15AD14AC13125F
:10050D00027CAB07AA067525027D087F01120A91B0
:10051D007B2E7D0A7F01120C547F007E407D1C7C5A
:10052D0046AB16AA15A914A81312000E12027CE4EC
:10053D007B107A27F9F81203CD7525037D0B7F010A
:10054D00120A91120B341209E6120C2212085C8E5B
:10055D00178F18AC17AD18E41202437B297A5C791A
:10056D008F783C12000E12027C8E118F127C007D52
:10057D006412033C7C007D0A12033CAB05AE11AF47
:10058D00127C007D0A12033C7C007D0A12033C8D17
:10059D001FAE11AF127C007D0A12033C8D20EB6063
:1005AD00057F01120A10E51F7D0712098B7F0112CD
:1005BD000A10E5207D0812098B7F01120A10020432
:0105CD00BD70
:100A7400E4FDFCC3ED9FEC9E5012758DFF758B9CBD
:0C0A8400308FFDC28F0DBD00010C80E71B
:010A90002243
:01000A0022D3
:10085C00C29600D296E4FF0FBF0AFCC2963097FDF9
:10086C00120C30309713E58CD3948C500CE58CB46F
:10087C008CF1E58AD394A040EAC28CE58CC39446F3
:10088C00400CE58CB44616E58AD39450500FAF8CCF
:10089C00EFFEAD8A7C00E42DFFEC3EFE22E4FEFF71
:0108AC002229
:100B1B007F38120B7E7F0C120B7E7F06120B7E7FB3
:090B2B0001120B7E7F80020B7E9B
:100B7E00C2A7C2A6C2A58F807F01120A10D2A77F7C
:070B8E0001120A10C2A722A8
:100B9500C2A7C2A5D2A68F807F01120A10D2A77F55
:070BA50001120A10C2A72291
:09098B00900ADC93FB7A007F0165
:100994008F218D228A238B24E5217008E52224806F
:1009A400FF120B7EE521B40108E52224C0FF120BDF
:0609B4007EAF24020B954A
:0D0C3000758911E4F58CF58AD28CD28E22E4
:03000B00020003ED
:07000300758C00758A0032C4
:0E0C22007590F0E590F460057F0A120A10222A
:100A1000E4FDFCEFFBC3ED9BEC94005015E4FBFA06
:100A20000BBB00010AEB64784A70F50DBD00010CA8
:020A300080E163
:010A320022A1
:050C5E00C2A0C2A122AA
:100B340020B1157FC87E00120BED30B1FD7FC87E59
:090B440000120BEDB2A0B2A122D7
:1009E60020B026120C6320B020120C637B647A00C0
:1009F6007D017C007F927E081205CE7B647A00E43E
:0A0A0600FDFC7F927E081205CE224F
:060C1300C2A58F80D2A7EC
:080C19007F027EEFDEFEDFFC2E
:010C210022B0
:0A0C4A00C2A6120C13C2A7020C1977
:100A5600CFCDCFCECCCE12033C7C007D0A12033C18
:040A6600ED2430FF4C
:0A0A6A00D2A6120C13C2A7020C1949
:100BC300AE07BE0104ED148006BE0209ED243F44C6
:060BD30080FF120C4A2213
:100BD9007F38120C4A7F0C120C4A7F06120C4A7F8E
:040BE90001020C4AAF
:0A0C5400AC03120BC3AF04020A6ADE
:060A33008B218A228923B9
:100A3900120BC3E4FDAB21AA22A9238D8275830081
:0C0A49001202FDFF6006120A6A0D80E92F
:010A5500227E
:0C0958007F0AEA24FFFDE434FFFC7E006F
:080964008E268F278C288D29B7
:10096C007F017E00E4FBEBC39529E5286480F874D5
:0E097C008098500AAC26AD2712032A0B80E8A3
:01098A00224A
:040A91008A238B2405
:100A9500120BC3AA25EAD39400400D120958AC23C2
:080AA500AD24120A561A80ED7F
:010AAD002226
:1008AD00120BC3C3EA64809480400B7F2B120A6A3B
:1008BD008A388B39800E7F2D120A6AC3E49BF53975
:1008CD00E49AF538AA37EAD39400400D120958ACD2
:0908DD0038AD39120A561A80EDFB
:0108E60022EF
:0408E7008A3C8B3D7F
:1008EB00120BC3AA3EEAD3940040297F1012095A77
:1008FB00AC3CAD3DCFCDCFCECCCE12033CEF540FA5
:10090B00FEC3940AEE5004243080022437FF120AEF
:04091B006A1A80D103
:01091F0022B5
:040920008A418B423B
:10092400120BC3AA43EAD394004028EA24FFFDE44F
:1009340034FFFC7F027E00120964AC41AD42CFCD8E
:10094400CFCECCCE12033CEF54012430FF120A6AFE
:030954001A80D234
:01095700227D
:0D0AF300012E00013000012F000231000033
:100BAC005389F0438901758A18758CFCC28DD28CDF
:070BBC00D2A9D2AFC2B92299
:03000B00020715D4
:10071500C0E0C0F0C083C082C0D075D000C000C0AA
:0D07250001C002C003C004C005C006C0072B
:10073200758A18758CFC052BE52B7002052AC3946B
:10074200E8E52A9403402F752A00752B00052EE553
:100752002E943C4021752E000530E530943C401625
:10076200753000052FE52F9418400B752F00052DCD
:10077200E52D7002052CE52E640A7037E53245310D
:1007820070177B64FA7D01FC7F927E081205CE050C
:1007920032E53270020531801A7B647A00E4FDFC96
:1007A2007F927E081205CE753100753200752C00DD
:0307B200752D00A2
:1007B500D007D006D005D004D003D002D001D00098
:0B07C500D0D0D082D083D0F0D0E03242
:040C63007F02DFFE2F
:010C6700226A
:100BED00AD07AC06ED1DAE0470011C4E6005120C78
:040BFD006380F122FE
:0805CE008E218F228A238B2469
:1005D600E4F525F526ED4C6003020678E5221522A2
:1005E600AE21700215214E700302070CE5257062DC
:1005F600E526B40800505B900604F8282873020626
:100606001C020622020628020632020638020642AA
:1006160002064C020650D290C291800AD290D29124
:100626008004C290D291C292C2938026C290D29187
:100636008004C290C291D292C2938016C290C29197
:10064600D292D293800CC2908002D290C291C29272
:10065600D293E526640745257006F525F52680081C
:100666000526E52670020525AF24AE23120BED0202
:1006760005E2E5221522AE21700215214E70030215
:10068600070CE5257060E526B40800505990069AD7
:10069600F82828730206B20206B60206C00206CA87
:1006A6000206D00206DA0206DE0206E4D2908002D4
:1006B600C290C291C292D293802CC290C291D29221
:1006C600D2938022C290C2918004C290D291D292DB
:1006D600C2938012C2908002D290D2918004D290AE
:1006E600C291C292C293E526640745257006F52598
:1006F600F52680080526E52670020525AF24AE23DB
:0E070600120BED020678C290C291C292C2930D
:0107140022C2
:0D0C3D00120B017FCC120B4D7F44020B4DBA
:1009BA00120B017FCC120B4D7FBE120B4D120AAEE9
:1009CA008F21120AAEEFFEE521FFFDAC06EC120202
:0B09DA0043E4FBFA798078411201171A
:0109E50022EF
:100B0100D2B7C2B77FF7DFFED2B77F20DFFEA2B731
:090B1100E433FE7FF7DFFEAF06BE
:010B1A0022B8
:100C0100C2B77E04DEFEEF24FF92B77E18DEFED26D
:010C1100B72B
:010C120022BF
:100B6600C2B77F02DFFED2B77F02DFFEA2B7E43351
:070B7600FE7F18DFFEAF0651
:010B7D002255
:020B4D00AD07F2
:100B4F00E4FC7401A804088002C333D8FC5DFF12D3
:060B5F000C010CBC08ECC7
:010B6500226D
:100AAE00E4FDFC120B66EF600D7401A804088002D1
:0C0ABE00C333D8FC42050CBC08E9AF05AE
:010ACA002209
:10000E00EC4D6011E8497017ED33EC3304600DE4EC
:10001E00FCFFFEFD22E933E8330470F80202E81219
:10002E0002B358046009E4CC24815006285009021A
:10003E0002F22840030202EFC0E0EB4A7044B9809E
:10004E0006D0E0FB0202DEEF4E701CBD8008EBFF17
:10005E00EAFEE9FD80EBE98DF0A4FEE5F00200F783
:10006E00E9CDF9EAFEEBFFEF89F0A4FCE5F0CE89CD
:10007E00F0A42EFFE435F0CD89F0A42DFEE435F08A
:10008E008067EF4E7005BD80D780C3EF8BF0A4ACB8
:10009E00F0EE8BF0A42CFCE435F0F8EF8AF0A42CF3
:1000AE00E5F038FCE433CB8DF0A42CFCE5F03BF806
:1000BE00EE8AF0A42CFCE5F038F8E433CF89F0A4F6
:1000CE002CFCE5F038CF3400CE89F0A42FFFE5F0FC
:1000DE003EFEE433C98DF0A42EFEE5F039CD8AF054
:1000EE00A42FFFE5F03EFEE43DFD33D0E0FB5007CC
:1000FE000BBB000F0202F2EC2CFCEF33FFEE33FED3
:06010E00ED33FD0202CA00
:100114000202F2EC5D046005E8590470030202E88F
:100124001202B3580460F6EC4860F2EC7004FDFE71
:10013400FF22C860DB2481C85009C39860025006BE
:100144000202EF9850CAF582E9294B4A7005AB8246
:100154000202DE75F0007C1A7880C3EF9BEE9AED04
:1001640099400DC3EF9BFFEE9AFEED99FDE842F036
:10017400DC23ACF0D0E0FFD0E0FED0E0FDAB822089
:10018400E7101BEB60BAEC2CFCEF33FFEE33FEED13
:1001940033FD0202CAE803F830E705C0F075F00049
:1001A400EF2FFFEE33FEED33FD40B830E7C280AAF7
:1001B40074F8CC6480CCC86480C8F58204604FC3F2
:1001C400EB9FF5F0EA9E42F0E99D42F0E89C45F091
:1001D400603C501DE5825FFFE582D313CB5BCBF41B
:1001E4002B5582FB50280ABA002409B90020088044
:1001F4001DE5825BFBE582D313CF5FCFF4C3132FDE
:100204005582FF50090EBE00050DBD00010CC3EB65
:100214009FF5F0EA9E42F0E99D42F0E89C45F060CB
:0902240007CC4820E701B3EC22ED
:10022D00ED33EC33600A047003BD8004ECB2E7FCDF
:01023D00229E
:10023E0075F020800E75F010800575F0087D007E3B
:10024E00007F003392D530D50312045FEC3340109B
:10025E00EF33FFEE33FEED33FDEC33FCD5F0ED2244
:0E026E00E5F0247EA2D513CC92E7CDCEFF2280
:10027C00EDD2E7CD33EC3392D524814006E4FFFE7A
:10028C00FDFC22FCE4CFCECDCC24E0501174FF80D9
:10029C00EDC3CC13CCCD13CDCE13CECF13CF047076
:0702AC00F030D5DE02045F13
:1002B300E9D2E7C933E833F892D5EDD2E7CD33EC91
:0702C30033FC5002B2D5220A
:1002CA00EC30E7100FBF000C0EBE00080DBD000495
:1002DA000BEB6014A2D5EB13FCED92E7FD2274FF41
:1002EA00FCFDFEFF22E480F8A2D574FF13FC7D809A
:0302FA00E480EFAE
:030000000207D024
:0C07D000787FE4F6D8FD7581430208171D
:1002FD00BB010CE58229F582E5833AF583E02250B6
:10030D0006E92582F8E622BBFE06E92582F8E222FF
:0D031D00E58229F582E5833AF583E4932219
:10032A00EF8DF0A4A8F0CF8CF0A428CE8DF0A42EE7
:02033A00FE22A1
:10033C00BC000BBE0029EF8DF084FFADF022E4CCA5
:10034C00F875F008EF2FFFEE33FEEC33FCEE9DEC6E
:10035C00984005FCEE9DFE0FD5F0E9E4CEFD22EDB4
:10036C00F8F5F0EE8420D21CFEADF075F008EF2FFE
:10037C00FFED33FD4007985006D5F0F222C398FDEF
:05038C000FD5F0EA228C
:1003910075F008758200EF2FFFEE33FECD33CDCC23
:1003A10033CCC58233C5829BED9AEC99E5829840A6
:1003B1000CF582EE9BFEED9AFDEC99FC0FD5F0D683
:1003C100E4CEFBE4CDFAE4CCF9A88222B800C1B9AD
:1003D1000059BA002DEC8BF084CFCECDFCE5F0CBEB
:1003E100F97818EF2FFFEE33FEED33FDEC33FCEB24
:1003F10033FB10D703994004EB99FB0FD8E5E4F9DF
:10040100FA227818EF2FFFEE33FEED33FDEC33FCCB
:10041100C933C910D7059BE99A4007EC9BFCE99ABF
:10042100F90FD8E0E4C9FAE4CCFB2275F010EF2F04
:10043100FFEE33FEED33FDCC33CCC833C810D70704
:100441009BEC9AE899400AED9BFDEC9AFCE899F83F
:0E0451000FD5F0DAE4CDFBE4CCFAE4C8F922D2
:0E045F00C3E49FFFE49EFEE49DFDE49CFC22AE
:1007DC0002046DE493A3F8E493A34003F68001F2C2
:1007EC0008DFF48029E493A3F85407240CC8C3331E
:1007FC00C4540F4420C8834004F456800146F6DFED
:10080C00E4800B0102040810204080900AE7E47E8B
:10081C00019360BCA3FF543F30E509541FFEE493E1
:10082C00A360010ECF54C025E060A840B8E493A3A8
:10083C00FAE493A3F8E493A3C8C582C8CAC583CAD3
:10084C00F0A3C8C582C8CAC583CADFE9DEE780BE8B
:010B000000F4
:00000001FF
