:100BE60054656D703A004300486967683A00636D62
:0C0BF600003031323334353637383900E6
:060C4E00040A42C8000088
:10057500120003120C7E120C95120D197F647E0079
:10058500120CD6120CC27BFF7A0B79E67D017F0136
:10059500120B4E7BFF7A0B79EC7D0F7F01120B4E10
:1005A5007BFF7A0B79EE7D017F02120B4E7BFF7A82
:1005B5000B79F47D0F7F02120B4E120D19120AFFF3
:1005C5008F198E188D178C16E4FFFEFDFCAB19AA4A
:1005D50018A917A8161202BC501E7B2D7D077F0196
:1005E500120D30AF19AE18AD17AC161203358F19B1
:1005F5008E188D178C1680097B2B7D077F01120DB8
:1006050030AF19AE18AD17AC16120384AB07AA06A6
:100615007526027D087F01120BAC7B2E7D0A7F01BA
:10062500120D307F007E407D1C7C46AB19AA18A9AF
:1006350017A816120116120384E47B107A27F9F81D
:100645001204D57526037D0B7F01120BAC120C1C11
:10065500120ACD120D0B12094F8E1A8F1BAC1AAD53
:100665001BE412034B7B297A5C798F783C120116C7
:100675001203848E088F09AC08AD09E412034B8F71
:10068500158E148D138C12AB15AA14A913A812AFCD
:100695000DAE0CAD0BAC0A120021120384AB07AAF8
:1006A500067526037D077F02120BAC7B2E7D0A7F24
:1006B50002120D30AB15AA14A913A812AF0DAE0C7A
:1006C500AD0BAC0A1200217B007A40791C784612EA
:1006D5000116120384E47B107A27F9F81204D57504
:0C06E50026037D0B7F02120BAC0205BF48
:100B8F00E4FDFCC3ED9FEC9E5012758DFF758B9CA1
:0C0B9F00308FFDC28F0DBD00010C80E7FF
:010BAB002227
:10094F00C29600D296E4FF0FBF0AFCC2963097FD05
:10095F0012000E309713E58CD3948C500CE58CB4A9
:10096F008CF1E58AD394A040EAC28CE58CC39446FF
:10097F00400CE58CB44616E58AD39450500FAF8CDB
:10098F00EFFEAD8A7C00E42DFFEC3EFE22E4FEFF7D
:01099F002235
:0D000E00758911E4F58CF58AD28CD28E2212
:0E0D0B007590F0E590F460057F0A120B2B2224
:100B2B00E4FDFCEFFBC3ED9BEC94005015E4FBFAEA
:100B3B000BBB00010AEB64784A70F50DBD00010C8C
:020B4B0080E147
:010B4D002285
:05000300C2A0C2A12211
:100C1C0020B1157FC87E00120CD630B1FD7FC87E86
:090C2C0000120CD6B2A0B2A12204
:100ACD0020B02E7FC87E00120CD620B0247FC87EA9
:100ADD0000120CD67B647A007D017C007F927E082B
:100AED001206F17B647A00E4FDFC7F927E0812060B
:020AFD00F122E4
:060CFC00C2A58F80D2A703
:080D02007F027EEFDEFEDFFC44
:010D0A0022C6
:0A0D2600C2A6120CFCC2A7020D02C7
:100B7100CFCDCFCECCCE1204447C007D0A120444EA
:040B8100ED2430FF30
:0A0B8500D2A6120CFCC2A7020D025A
:100CAC00AE07BE0104ED148006BE0209ED243F44DC
:060CBC0080FF120D26224C
:100CC2007F38120D267F0C120D267F06120D267F0D
:040CD20001020D26E8
:0A0D3000AC03120CACAF04020B85FB
:060B4E008B228A2389249A
:100B5400120CACE4FDAB22AA23A9248D8275830078
:0C0B6400120405FF6006120B850D80E9ED
:010B70002262
:0C0A9A007F0AEA24FFFDE434FFFC7E002C
:080AA6008E278F288C298D2A70
:100AAE007F017E00E4FBEBC3952AE5296480F87490
:0E0ABE008098500AAC27AD281204320B80E855
:010ACC002207
:040BAC008A248B25E7
:100BB000120CACAA26EAD39400400D120A9AAC2477
:080BC000AD25120B711A80ED46
:010BC800220A
:1009EF00120CACC3EA64809480400B7F2B120B85F2
:1009FF008A398B3A800E7F2D120B85C3E49BF53A13
:100A0F00E49AF539AA38EAD39400400D120A9AAC49
:090A1F0039AD3A120B711A80ED99
:010A280022AB
:040A29008A3D8B3E39
:100A2D00120CACAA3FEAD3940040297F10120A9C05
:100A3D00AC3DAD3ECFCDCFCECCCE120444EF540F56
:100A4D00FEC3940AEE5004243080022437FF120BAB
:040A5D00851A80D1A5
:010A61002272
:040A62008A428B43F6
:100A6600120CACAA44EAD394004028EA24FFFDE421
:100A760034FFFC7F027E00120AA6AC42AD43CFCD06
:100A8600CFCECCCE120444EF54012430FF120B8596
:030A96001A80D2F1
:010A9900223A
:040D3A007F02DFFE57
:010D3E002292
:100CD600AD07AC06ED1DAE0470011C4E6005120D8D
:040CE6003A80F1223D
:0806F1008E228F238A248B2541
:1006F900E4F526F527ED4C600302079BE523152356
:10070900AE22700215224E700302082FE526706290
:10071900E527B40800505B900727F82828730207DB
:100729003F02074502074B02075502075B020765AF
:1007390002076F020773D290C291800AD290D291B8
:100749008004C290D291C292C2938026C290D29163
:100759008004C290C291D292C2938016C290C29173
:10076900D292D293800CC2908002D290C291C2924E
:10077900D293E527640745267006F526F5278008F4
:100789000527E52770020526AF25AE24120CD602EF
:100799000705E5231523AE22700215224E700302C8
:1007A900082FE5267060E527B4080050599007BD69
:1007B900F82828730207D50207D90207E30207EDD3
:1007C9000207F30207FD020801020807D29080021E
:1007D900C290C291C292D293802CC290C291D292FD
:1007E900D2938022C290C2918004C290D291D292B7
:1007F900C2938012C2908002D290D2918004D2908A
:10080900C291C292C293E527640745267006F52670
:10081900F52780080527E52770020526AF25AE24B0
:0E082900120CD602079BC290C291C292C293DB
:01083700229E
:0D0D1900120C027FCC120C357F44020C3509
:100AFF00120C027FCC120C357FBE120C35120BC9B3
:100B0F008F22120BC9EFFEE522FFFDAC06EC12039C
:0B0B1F004BE4FBFA7980784112021FC2
:010B2A0022A8
:100C0200D2B7C2B77FF7DFFED2B77F20DFFEA2B72F
:090C1200E433FE7FF7DFFEAF06BC
:010C1B0022B6
:100CEA00C2B77E04DEFEEF24FF92B77E18DEFED284
:010CFA00B742
:010CFB0022D6
:100C6600C2B77F02DFFED2B77F02DFFEA2B7E43350
:070C7600FE7F18DFFEAF0650
:010C7D002254
:020C3500AD0709
:100C3700E4FC7401A804088002C333D8FC5DFF12EA
:060C47000CEA0CBC08ECF5
:010C4D002284
:100BC900E4FDFC120C66EF600D7401A804088002B4
:0C0BD900C333D8FC42050CBC08E9AF0592
:010BE50022ED
:0D0C5400012F0001310001300002320000CC
:100C7E005389F0438901758A66758CFCC28DD28CBE
:070C8E00D2A9D2AFC2B922C6
:03000B000209A047
:0409A000C0E0C0D023
:1009A400758A18758CFC052CE52C7002052BC394F4
:1009B400E8E52B9403402F752B00752C00052FE5DB
:1009C4002F943C4021752F000531E531943C4016AD
:1009D4007531000530E5309418400B753000052E54
:0609E400E52E7002052D56
:0509EA00D0D0D0E03286
:040C61000247000046
:100C950053890F438910758B66758DFCC28FD28E73
:070CA500D2ABD2AFC2BB22AB
:03001B000208C414
:1008C400C0E0C0F0C083C082C0D075D000C000C0FA
:0D08D40001C002C003C004C005C006C0077B
:1008E100758B66758DFC0546E54670020545C3941A
:1008F100E8E5459403403C754500754600052FE544
:100901002FB40A06B2A0B2A18029E52FB40F247535
:100911002F00B2A0B2A17B647A007D017C007F929E
:100921007E081206F17B647A00E4FDFC7F927E086A
:030931001206F1BA
:10093400D007D006D005D004D003D002D001D00017
:0B094400D0D0D082D083D0F0D0E032C1
:10001E000203F0E86480F8E933E83360110460F01D
:10002E00ED33EC337009E8FCE9FDEAFEEBFF220448
:10003E0060DED3EB9FEA9EE99DE8C2E78CF0C2F743
:10004E0095F0400CE8CCF8E9CDF9EACEFAEBCFFB0F
:10005E001203BB85D0F05804700320D5B3E80470AA
:10006E00075002B2D50203FA92D5EC0460F7E4CC45
:10007E00C0E0C398F8603B94186008400DD0E0FBD8
:10008E000203D2E4FBFAC9FC8028E830E406E4C996
:10009E00FBE4CAFCE830E305E4C9CACBFCE854072C
:1000AE006010F8C3E913F9EA13FAEB13FBEC13FC37
:1000BE00D8F130F52FC3E49CFCEF9BFFEE9AFEEDDA
:1000CE0099FDD0E0FBEF4E4D4C701222DB03020384
:1000DE00F7EC2CFCEF33FFEE33FEED33FDED30E7A6
:1000EE00EB0203D2EF2BFFEE3AFEED39FDD0E0FB33
:1000FE0050130BBB00030203FAED13FDEE13FEEFDC
:08010E0013FFEC13FC0203D205
:10011600EC4D6011E8497017ED33EC3304600DE4E3
:10012600FCFFFEFD22E933E8330470F80203F01207
:1001360003BB58046009E4CC248150062850090208
:1001460003FA2840030203F7C0E0EB4A7044B98083
:1001560006D0E0FB0203E6EF4E701CBD8008EBFF05
:10016600EAFEE9FD80EBE98DF0A4FEE5F00201FF71
:10017600E9CDF9EAFEEBFFEF89F0A4FCE5F0CE89C4
:10018600F0A42EFFE435F0CD89F0A42DFEE435F081
:100196008067EF4E7005BD80D780C3EF8BF0A4ACAF
:1001A600F0EE8BF0A42CFCE435F0F8EF8AF0A42CEA
:1001B600E5F038FCE433CB8DF0A42CFCE5F03BF8FD
:1001C600EE8AF0A42CFCE5F038F8E433CF89F0A4ED
:1001D6002CFCE5F038CF3400CE89F0A42FFFE5F0F3
:1001E6003EFEE433C98DF0A42EFEE5F039CD8AF04B
:1001F600A42FFFE5F03EFEE43DFD33D0E0FB5007C3
:100206000BBB000F0203FAEC2CFCEF33FFEE33FEC0
:06021600ED33FD0203D2EE
:10021C000203FAEC5D046005E8590470030203F074
:10022C001203BB580460F6EC4860F2EC7004FDFE5F
:10023C00FF22C860DB2481C85009C39860025006B5
:10024C000203F79850CAF582E9294B4A7005AB8234
:10025C000203E675F0007C1A7880C3EF9BEE9AEDF2
:10026C0099400DC3EF9BFFEE9AFEED99FDE842F02D
:10027C00DC23ACF0D0E0FFD0E0FED0E0FDAB822080
:10028C00E7101BEB60BAEC2CFCEF33FFEE33FEED0A
:10029C0033FD0203D2E803F830E705C0F075F00037
:1002AC00EF2FFFEE33FEED33FD40B830E7C280AAEE
:1002BC0074F8CC6480CCC86480C8F58204604FC3E9
:1002CC00EB9FF5F0EA9E42F0E99D42F0E89C45F088
:1002DC00603C501DE5825FFFE582D313CB5BCBF412
:1002EC002B5582FB50280ABA002409B9002008803B
:1002FC001DE5825BFBE582D313CF5FCFF4C3132FD5
:10030C005582FF50090EBE00050DBD00010CC3EB5C
:10031C009FF5F0EA9E42F0E99D42F0E89C45F060C2
:09032C0007CC4820E701B3EC22E4
:10033500ED33EC33600A047003BD8004ECB2E7FCD6
:010345002295
:1003460075F020800E75F010800575F0087D007E32
:10035600007F003392D530D503120567EC33401089
:10036600EF33FFEE33FEED33FDEC33FCD5F0ED223B
:0E037600E5F0247EA2D513CC92E7CDCEFF2277
:10038400EDD2E7CD33EC3392D524814006E4FFFE71
:10039400FDFC22FCE4CFCECDCC24E0501174FF80D0
:1003A400EDC3CC13CCCD13CDCE13CECF13CF04706D
:0703B400F030D5DE02056701
:1003BB00E9D2E7C933E833F892D5EDD2E7CD33EC88
:0703CB0033FC5002B2D52201
:1003D200EC30E7100FBF000C0EBE00080DBD00048C
:1003E2000BEB6014A2D5EB13FCED92E7FD2274FF38
:1003F200FCFDFEFF22E480F8A2D574FF13FC7D8091
:03040200E480EFA4
:03000000020838BB
:0C083800787FE4F6D8FD75814802087F47
:10040500BB010CE58229F582E5833AF583E02250AC
:1004150006E92582F8E622BBFE06E92582F8E222F6
:0D042500E58229F582E5833AF583E4932210
:10043200EF8DF0A4A8F0CF8CF0A428CE8DF0A42EDE
:02044200FE2298
:10044400BC000BBE0029EF8DF084FFADF022E4CC9C
:10045400F875F008EF2FFFEE33FEEC33FCEE9DEC65
:10046400984005FCEE9DFE0FD5F0E9E4CEFD22EDAB
:10047400F8F5F0EE8420D21CFEADF075F008EF2FF5
:10048400FFED33FD4007985006D5F0F222C398FDE6
:050494000FD5F0EA2283
:1004990075F008758200EF2FFFEE33FECD33CDCC1A
:1004A90033CCC58233C5829BED9AEC99E58298409D
:1004B9000CF582EE9BFEED9AFDEC99FC0FD5F0D67A
:1004C900E4CEFBE4CDFAE4CCF9A88222B800C1B9A4
:1004D9000059BA002DEC8BF084CFCECDFCE5F0CBE2
:1004E900F97818EF2FFFEE33FEED33FDEC33FCEB1B
:1004F90033FB10D703994004EB99FB0FD8E5E4F9D6
:10050900FA227818EF2FFFEE33FEED33FDEC33FCC2
:10051900C933C910D7059BE99A4007EC9BFCE99AB6
:10052900F90FD8E0E4C9FAE4CCFB2275F010EF2FFB
:10053900FFEE33FEED33FDCC33CCC833C810D707FB
:100549009BEC9AE899400AED9BFDEC9AFCE899F836
:0E0559000FD5F0DAE4CDFBE4CCFAE4C8F922C9
:0E056700C3E49FFFE49EFEE49DFDE49CFC22A5
:10084400020575E493A3F8E493A34003F68001F250
:1008540008DFF48029E493A3F85407240CC8C333B5
:10086400C4540F4420C8834004F456800146F6DF84
:10087400E4800B0102040810204080900C4EE47EBA
:10088400019360BCA3FF543F30E509541FFEE49379
:10089400A360010ECF54C025E060A840B8E493A340
:1008A400FAE493A3F8E493A3C8C582C8CAC583CA6B
:1008B400F0A3C8C582C8CAC583CADFE9DEE780BE23
:010C6500008E
:00000001FF
