:100AFF0054656D703A004300486967683A00636D4A
:0C0B0F00003031323334353637383900CD
:10047D00120003120B35120BDD120BC6120C6F7F1F
:10048D00647E00120C1E120C0A7BFF7A0A79FF7D26
:10049D00017F01120A677BFF7A0B79057D0F7F01C2
:1004AD00120A677BFF7A0B79077D017F02120A67BB
:1004BD007BFF7A0B790D7D0F7F02120A67120C6F8D
:1004CD00120A188F278E268D258C24E4FFFEFDFC45
:1004DD00AB27AA26A925A8241201C4501E7B2D7D69
:1004ED00077F01120C86AF27AE26AD25AC24120274
:1004FD003D8F278E268D258C2480097B2B7D077FB4
:10050D0001120C86AF27AE26AD25AC2412028CABA2
:10051D0007AA067514027D087F01120AC57B2E7D80
:10052D000A7F01120C867F007E407D1C7C46AB2726
:10053D00AA26A925A82412001E12028CE47B107A8B
:10054D0027F9F81203DD7514037D0B7F01120AC51F
:10055D00120B4E1209B7120C531208398E288F291F
:10056D00AC28AD29E41202537B297A5C798F783C53
:10057D0012001E12028C8E228F237C007D641203CA
:10058D004C7C007D0A12034CAB05AE22AF237C00E0
:10059D007D0A12034C7C007D0A12034C8D0EAE2297
:1005AD00AF237C007D0A12034C8D0FEB60057F019C
:1005BD00120A44E50E7D071209E97F01120A44E58E
:0E05CD000F7D081209E97F01120A440204CAD8
:100AA800E4FDFCC3ED9FEC9E5012758DFF758B9C89
:0C0AB800308FFDC28F0DBD00010C80E7E7
:010AC400220F
:10083900C29600D296E4FF0FBF0AFCC2963097FD1C
:1008490012000E309713E58CD3948C500CE58CB4C0
:100859008CF1E58AD394A040EAC28CE58CC3944616
:10086900400CE58CB44616E58AD39450500FAF8CF2
:10087900EFFEAD8A7C00E42DFFEC3EFE22E4FEFF94
:01088900224C
:100B35007F38120B987F0C120B987F06120B987F4B
:090B450001120B987F80020B984D
:100B9800C2A7C2A6C2A58F807F01120A44D2A77F2E
:070BA80001120A44C2A7225A
:100BAF00C2A7C2A5D2A68F807F01120A44D2A77F07
:070BBF0001120A44C2A72243
:0909E900900B1093FB7A007F01D2
:1009F2008F108D118A128B13E5107008E511248077
:100A0200FF120B98E510B40108E51124C0FF120B88
:060A120098AF13020BAFC8
:0D000E00758911E4F58CF58AD28CD28E2212
:0E0C53007590F0E590F460057F0A120A4422C5
:100A4400E4FDFCEFFBC3ED9BEC94005015E4FBFAD2
:100A54000BBB00010AEB64784A70F50DBD00010C74
:020A640080E12F
:010A6600226D
:05000300C2A0C2A12211
:100B4E0020B1157FC87E00120C1E30B1FD7FC87E0D
:090B5E0000120C1EB2A0B2A1228B
:1009B70020B02E7FC87E00120C1E20B0247FC87E78
:1009C70000120C1E7B647A007D017C007F927E08FA
:1009D7001205DB7B647A00E4FDFC7F927E0812053A
:0209E700DB2211
:060C4400C2A58F80D2A7BB
:080C4A007F027EEFDEFEDFFCFD
:010C5200227F
:0A0C7C00C2A6120C44C2A7020C4AE3
:100A8A00CFCDCFCECCCE12034C7C007D0A12034CC4
:040A9A00ED2430FF18
:0A0A9E00D2A6120C44C2A7020C4AB3
:100BF400AE07BE0104ED148006BE0209ED243F4495
:060C040080FF120C7C22AF
:100C0A007F38120C7C7F0C120C7C7F06120C7C7FC6
:040C1A0001020C7C4B
:0A0C8600AC03120BF4AF04020A9E47
:060A67008B108A118912B8
:100A6D00120BF4E4FDAB10AA11A9128D827583004F
:0C0A7D0012030DFF6006120A9E0D80E9B6
:010A8900224A
:0C0984007F0AEA24FFFDE434FFFC7E0043
:080990008E158F168C178D18CF
:100998007F017E00E4FBEBC39518E5176480F874CB
:0E09A8008098500AAC15AD1612033A0B80E889
:0109B600221E
:040AC5008A128B13F3
:100AC900120BF4AA14EAD39400400D120984AC1253
:080AD900AD13120A8A1A80ED28
:010AE10022F2
:1008D900120BF4C3EA64809480400B7F2B120A9EAA
:1008E9008A2F8B30800E7F2D120A9EC3E49BF53030
:1008F900E49AF52FAA2EEAD39400400D120984AC8C
:090909002FAD30120A8A1A80EDAC
:0109120022C2
:040913008A338B3464
:10091700120BF4AA35EAD3940040297F10120986F6
:10092700AC33AD34CFCDCFCECCCE12034CEF540F7A
:10093700FEC3940AEE5004243080022437FF120AC3
:040947009E1A80D1A3
:01094B002289
:04094C008A388B3921
:10095000120BF4AA3AEAD394004028EA24FFFDE4FB
:1009600034FFFC7F027E00120990AC38AD39CFCD48
:10097000CFCECCCE12034CEF54012430FF120A9E8E
:030980001A80D208
:010983002251
:040C90007F02DFFE02
:010C9400223D
:100C1E00AD07AC06ED1DAE0470011C4E6005120C46
:040C2E009080F1229F
:0805DB008E108F118A128B13A0
:1005E300E4F514F515ED4C6003020685E5111511CC
:1005F300AE10700215104E7003020719E5147062F5
:10060300E515B40800505B900611F828287302061C
:100613002902062F02063502063F02064502064F4F
:1006230002065902065DD290C291800AD290D291FD
:100633008004C290D291C292C2938026C290D2917A
:100643008004C290C291D292C2938016C290C2918A
:10065300D292D293800CC2908002D290C291C29265
:10066300D293E515640745147006F514F515800853
:100673000515E51570020514AF13AE12120C1E0218
:1006830005EFE5111511AE10700215104E7003023F
:100693000719E5147060E515B4080050599006A7D2
:1006A300F82828730206BF0206C30206CD0206D746
:1006B3000206DD0206E70206EB0206F1D290800293
:1006C300C290C291C292D293802CC290C291D29214
:1006D300D2938022C290C2918004C290D291D292CE
:1006E300C2938012C2908002D290D2918004D290A1
:1006F300C291C292C293E515640745147006F514BE
:10070300F51580080515E51570020514AF13AE1233
:0E071300120C1E020685C290C291C292C293C1
:0107210022B5
:0D0C6F00120B1B7FCC120B677F44020B673A
:100A1800120B1B7FCC120B677FBE120B67120AE208
:100A28008F10120AE2EFFEE510FFFDAC06EC120291
:0B0A380053E4FBFA798078411201279B
:010A43002290
:100B1B00D2B7C2B77FF7DFFED2B77F20DFFEA2B717
:090B2B00E433FE7FF7DFFEAF06A4
:010B3400229E
:100C3200C2B77E04DEFEEF24FF92B77E18DEFED23C
:010C4200B7FA
:010C4300228E
:100B8000C2B77F02DFFED2B77F02DFFEA2B7E43337
:070B9000FE7F18DFFEAF0637
:010B9700223B
:020B6700AD07D8
:100B6900E4FC7401A804088002C333D8FC5DFF12B9
:060B79000C320CBC08EC7C
:010B7F002253
:100AE200E4FDFC120B80EF600D7401A80408800283
:0C0AF200C333D8FC42050CBC08E9AF057A
:010AFE0022D5
:100BC60053890F438910758B66758DFCC28FD28E43
:070BD600D2ABD2AFC2BB227B
:03001B000207AE2B
:1007AE00C0E0C0F0C083C082C0D075D000C000C011
:0D07BE0001C002C003C004C005C006C00792
:1007CB00758B66758DFC053CE53C7002053BC3944F
:1007DB00E8E53B9403403C753B00753C00051DE58B
:1007EB001DB40A06B2A0B2A18029E51DB40F247571
:1007FB001D00B2A0B2A17B647A007D017C007F92C8
:10080B007E081205DB7B647A00E4FDFC7F927E0898
:03081B001205DBE8
:10081E00D007D006D005D004D003D002D001D0002E
:0B082E00D0D0D082D083D0F0D0E032D8
:0D0C6100011D00011F00011E000220000007
:100BDD005389F0438901758A66758CFCC28DD28C60
:070BED00D2A9D2AFC2B92268
:03000B0002088A5E
:04088A00C0E0C0D03A
:10088E00758A18758CFC051AE51A70020519C39441
:10089E00E8E5199403402F751900751A00051DE53A
:1008AE001D943C4021751D00051FE51F943C40160C
:1008BE00751F00051EE51E9418400B751E00051CC5
:0608CE00E51C7002051B91
:0508D400D0D0D0E0329D
:10001E00EC4D6011E8497017ED33EC3304600DE4DC
:10002E00FCFFFEFD22E933E8330470F80202F812F9
:10003E0002C358046009E4CC2481500628500902FA
:10004E0003022840030202FFC0E0EB4A7044B9806D
:10005E0006D0E0FB0202EEEF4E701CBD8008EBFFF7
:10006E00EAFEE9FD80EBE98DF0A4FEE5F002010762
:10007E00E9CDF9EAFEEBFFEF89F0A4FCE5F0CE89BD
:10008E00F0A42EFFE435F0CD89F0A42DFEE435F07A
:10009E008067EF4E7005BD80D780C3EF8BF0A4ACA8
:1000AE00F0EE8BF0A42CFCE435F0F8EF8AF0A42CE3
:1000BE00E5F038FCE433CB8DF0A42CFCE5F03BF8F6
:1000CE00EE8AF0A42CFCE5F038F8E433CF89F0A4E6
:1000DE002CFCE5F038CF3400CE89F0A42FFFE5F0EC
:1000EE003EFEE433C98DF0A42EFEE5F039CD8AF044
:1000FE00A42FFFE5F03EFEE43DFD33D0E0FB5007BC
:10010E000BBB000F020302EC2CFCEF33FFEE33FEB1
:06011E00ED33FD0202DAE0
:10012400020302EC5D046005E8590470030202F85E
:100134001202C3580460F6EC4860F2EC7004FDFE51
:10014400FF22C860DB2481C85009C39860025006AE
:100154000202FF9850CAF582E9294B4A7005AB8226
:100164000202EE75F0007C1A7880C3EF9BEE9AEDE4
:1001740099400DC3EF9BFFEE9AFEED99FDE842F026
:10018400DC23ACF0D0E0FFD0E0FED0E0FDAB822079
:10019400E7101BEB60BAEC2CFCEF33FFEE33FEED03
:1001A40033FD0202DAE803F830E705C0F075F00029
:1001B400EF2FFFEE33FEED33FD40B830E7C280AAE7
:1001C40074F8CC6480CCC86480C8F58204604FC3E2
:1001D400EB9FF5F0EA9E42F0E99D42F0E89C45F081
:1001E400603C501DE5825FFFE582D313CB5BCBF40B
:1001F4002B5582FB50280ABA002409B90020088034
:100204001DE5825BFBE582D313CF5FCFF4C3132FCD
:100214005582FF50090EBE00050DBD00010CC3EB55
:100224009FF5F0EA9E42F0E99D42F0E89C45F060BB
:0902340007CC4820E701B3EC22DD
:10023D00ED33EC33600A047003BD8004ECB2E7FCCF
:01024D00228E
:10024E0075F020800E75F010800575F0087D007E2B
:10025E00007F003392D530D50312046FEC3340107B
:10026E00EF33FFEE33FEED33FDEC33FCD5F0ED2234
:0E027E00E5F0247EA2D513CC92E7CDCEFF2270
:10028C00EDD2E7CD33EC3392D524814006E4FFFE6A
:10029C00FDFC22FCE4CFCECDCC24E0501174FF80C9
:1002AC00EDC3CC13CCCD13CDCE13CECF13CF047066
:0702BC00F030D5DE02046FF3
:1002C300E9D2E7C933E833F892D5EDD2E7CD33EC81
:0702D30033FC5002B2D522FA
:1002DA00EC30E7100FBF000C0EBE00080DBD000485
:1002EA000BEB6014A2D5EB13FCED92E7FD2274FF31
:1002FA00FCFDFEFF22E480F8A2D574FF13FC7D808A
:03030A00E480EF9D
:03000000020722D2
:0C072200787FE4F6D8FD75813C02076981
:10030D00BB010CE58229F582E5833AF583E02250A5
:10031D0006E92582F8E622BBFE06E92582F8E222EF
:0D032D00E58229F582E5833AF583E4932209
:10033A00EF8DF0A4A8F0CF8CF0A428CE8DF0A42ED7
:02034A00FE2291
:10034C00BC000BBE0029EF8DF084FFADF022E4CC95
:10035C00F875F008EF2FFFEE33FEEC33FCEE9DEC5E
:10036C00984005FCEE9DFE0FD5F0E9E4CEFD22EDA4
:10037C00F8F5F0EE8420D21CFEADF075F008EF2FEE
:10038C00FFED33FD4007985006D5F0F222C398FDDF
:05039C000FD5F0EA227C
:1003A10075F008758200EF2FFFEE33FECD33CDCC13
:1003B10033CCC58233C5829BED9AEC99E582984096
:1003C1000CF582EE9BFEED9AFDEC99FC0FD5F0D673
:1003D100E4CEFBE4CDFAE4CCF9A88222B800C1B99D
:1003E1000059BA002DEC8BF084CFCECDFCE5F0CBDB
:1003F100F97818EF2FFFEE33FEED33FDEC33FCEB14
:1004010033FB10D703994004EB99FB0FD8E5E4F9CE
:10041100FA227818EF2FFFEE33FEED33FDEC33FCBB
:10042100C933C910D7059BE99A4007EC9BFCE99AAF
:10043100F90FD8E0E4C9FAE4CCFB2275F010EF2FF4
:10044100FFEE33FEED33FDCC33CCC833C810D707F4
:100451009BEC9AE899400AED9BFDEC9AFCE899F82F
:0E0461000FD5F0DAE4CDFBE4CCFAE4C8F922C2
:0E046F00C3E49FFFE49EFEE49DFDE49CFC229E
:10072E0002047DE493A3F8E493A34003F68001F260
:10073E0008DFF48029E493A3F85407240CC8C333CC
:10074E00C4540F4420C8834004F456800146F6DF9B
:10075E00E4800B0102040810204080900C61E47EBE
:10076E00019360BCA3FF543F30E509541FFEE49390
:10077E00A360010ECF54C025E060A840B8E493A357
:10078E00FAE493A3F8E493A3C8C582C8CAC583CA82
:10079E00F0A3C8C582C8CAC583CADFE9DEE780BE3A
:010C6E000085
:00000001FF
