:100A610054656D703A004300486967683A00636DE8
:0C0A71000030313233343536373839006C
:10046D00120003120A97120B28120BC77F647E002D
:10047D00120B69120B557BFF7A0A79617D017F01A1
:10048D001209C97BFF7A0A79677D0F7F011209C9AD
:10049D007BFF7A0A79697D017F021209C97BFF7A98
:1004AD000A796F7D0F7F021209C9120BC712097AE3
:1004BD008F218E208D1F8C1EE4FFFEFDFCAB21AA2B
:1004CD0020A91FA81E1201B4501E7B2D7D077F0190
:1004DD00120BDEAF21AE20AD1FAC1E12022D8F21EF
:1004ED008E208D1F8C1E80097B2B7D077F01120BAB
:1004FD00DEAF21AE20AD1FAC1E12027CAB07AA06EB
:10050D00750E027D087F01120A277B2E7D0A7F0161
:10051D00120BDE7F007E407D1C7C46AB21AA20A9FC
:10052D001FA81E12000E12027CE47B107A27F9F828
:10053D001203CD750E037D0B7F01120A27120AB02F
:10054D00120919120B9E12079B8E228F23AC22AD1E
:10055D0023E41202437B297A5C798F783C12000EDA
:10056D0012027C8E1C8F1D7C007D6412033C7C006E
:10057D007D0A12033CAB05AE1CAF1D7C007D0A123B
:10058D00033C7C007D0A12033C8D08AE1CAF1D7C24
:10059D00007D0A12033C8D09EB60057F011209A64F
:1005AD00E5087D0712094B7F011209A6E5097D08B3
:0B05BD0012094B7F011209A60204B7CF
:100A0A00E4FDFCC3ED9FEC9E5012758DFF758B9C27
:0C0A1A00308FFDC28F0DBD00010C80E785
:010A260022AD
:10079B00C29600D296E4FF0FBF0AFCC2963097FDBB
:1007AB00120BBA309713E58CD3948C500CE58CB4A8
:1007BB008CF1E58AD394A040EAC28CE58CC39446B5
:1007CB00400CE58CB44616E58AD39450500FAF8C91
:1007DB00EFFEAD8A7C00E42DFFEC3EFE22E4FEFF33
:0107EB0022EB
:100A97007F38120AFA7F0C120AFA7F06120AFA7FC7
:090AA70001120AFA7F80020AFA2A
:100AFA00C2A7C2A6C2A58F807F011209A6D2A77F6C
:070B0A00011209A6C2A72297
:100B1100C2A7C2A5D2A68F807F011209A6D2A77F44
:070B2100011209A6C2A72280
:09094B00900A7293FB7A007F010F
:100954008F0A8D0B8A0C8B0DE50A7008E50B248039
:10096400FF120AFAE50AB40108E50B24C0FF120AD3
:06097400FAAF0D020B11A9
:0D0BBA00758911E4F58CF58AD28CD28E225B
:0E0B9E007590F0E590F460057F0A1209A6221A
:1009A600E4FDFCEFFBC3ED9BEC94005015E4FBFA71
:1009B6000BBB00010AEB64784A70F50DBD00010C13
:0209C60080E1CE
:0109C800220C
:05000300C2A0C2A12211
:100AB00020B1157FC87E00120B6930B1FD7FC87E62
:090AC00000120B69B2A0B2A122E0
:1009190020B02E7FC87E00120B6920B0247FC87ECC
:1009290000120B697B647A007D017C007F927E084E
:100939001205C87B647A00E4FDFC7F927E081205EB
:02094900C822C2
:060B8F00C2A58F80D2A771
:080B95007F027EEFDEFEDFFCB3
:010B9D002235
:0A0BD400C2A6120B8FC2A7020B95F8
:1009EC00CFCDCFCECCCE12033C7C007D0A12033C83
:0409FC00ED2430FFB7
:0A0A0000D2A6120B8FC2A7020B95BD
:100B3F00AE07BE0104ED148006BE0209ED243F444A
:060B4F0080FF120BD4220E
:100B55007F38120BD47F0C120BD47F06120BD47F77
:040B650001020BD4AA
:0A0BDE00AC03120B3FAF04020A0043
:0609C9008B0A8A0B890C69
:1009CF00120B3FE4FDAB0AAA0BA90C8D82758300B5
:0C09DF001202FDFF6006120A000D80E904
:0109EB0022E9
:0C08E6007F0AEA24FFFDE434FFFC7E00E2
:0808F2008E0F8F108C118D1286
:1008FA007F017E00E4FBEBC39512E5116480F87476
:0E090A008098500AAC0FAD1012032A0B80E843
:0109180022BC
:040A27008A0C8B0D9D
:100A2B00120B3FAA0EEAD39400400D1208E6AC0C51
:080A3B00AD0D1209EC1A80ED6B
:010A43002290
:10083B00120B3FC3EA64809480400B7F2B120A009B
:10084B008A298B2A800E7F2D120A00C3E49BF52A7E
:10085B00E49AF529AA28EAD39400400D1208E6ACD5
:09086B0029AD2A1209EC1A80EDF6
:010874002261
:040875008A2D8B2E0F
:10087900120B3FAA2FEAD3940040297F101208E8EF
:10088900AC2DAD2ECFCDCFCECCCE12033CEF540F35
:10089900FEC3940AEE5004243080022437FF120A62
:0408A900001A80D1E0
:0108AD002228
:0408AE008A328B33CC
:1008B200120B3FAA34EAD394004028EA24FFFDE455
:1008C20034FFFC7F027E001208F2AC32AD33CFCD92
:1008D200CFCECCCE12033CEF54012430FF120A00DB
:0308E2001A80D2A7
:0108E50022F0
:0D0BAC00011700011900011800021A0000D5
:100B28005389F0438901758A18758CFCC28DD28C63
:070B3800D2A9D2AFC2B9221D
:03000B000207ECFD
:0407EC00C0E0C0D0D9
:1007F000758A18758CFC0514E51470020513C394F2
:10080000E8E5139403402F7513007514000517E5F0
:1008100017943C40217517000519E519943C4016C2
:100820007519000518E5189418400B751800051681
:06083000E516700205153B
:05083600D0D0D0E0323B
:040BE8007F02DFFEAB
:010BEC0022E6
:100B6900AD07AC06ED1DAE0470011C4E6005120BFD
:040B7900E880F122FD
:0805C8008E0A8F0B8A0C8B0DCB
:1005D000E4F50EF50FED4C6003020672E50B150B0A
:1005E000AE0A7002150A4E7003020706E50E70622D
:1005F000E50FB40800505B9005FEF828287302064A
:100600001602061C02062202062C02063202063CD4
:1006100002064602064AD290C291800AD290D29136
:100620008004C290D291C292C2938026C290D2918D
:100630008004C290C291D292C2938016C290C2919D
:10064000D292D293800CC2908002D290C291C29278
:10065000D293E50F6407450E7006F50EF50F80087E
:10066000050FE50F7002050EAF0DAE0C120B6902FF
:1006700005DCE50B150BAE0A7002150A4E7003027D
:100680000706E50E7060E50FB40800505990069417
:10069000F82828730206AC0206B00206BA0206C4A5
:1006A0000206CA0206D40206D80206DED2908002F2
:1006B000C290C291C292D293802CC290C291D29227
:1006C000D2938022C290C2918004C290D291D292E1
:1006D000C2938012C2908002D290D2918004D290B4
:1006E000C291C292C293E50F6407450E7006F50EE3
:1006F000F50F8008050FE50F7002050EAF0DAE0C6B
:0E070000120B69020672C290C291C292C2939D
:01070E0022C8
:0D0BC700120A7D7FCC120AC97F44020AC9C0
:10097A00120A7D7FCC120AC97FBE120AC9120A4422
:10098A008F0A120A44EFFEE50AFFFDAC06EC1202DA
:0B099A0043E4FBFA798078411201175A
:0109A500222F
:100A7D00D2B7C2B77FF7DFFED2B77F20DFFEA2B7B6
:090A8D00E433FE7FF7DFFEAF0643
:010A9600223D
:100B7D00C2B77E04DEFEEF24FF92B77E18DEFED2F2
:010B8D00B7B0
:010B8E002244
:100AE200C2B77F02DFFED2B77F02DFFEA2B7E433D6
:070AF200FE7F18DFFEAF06D6
:010AF90022DA
:020AC900AD0777
:100ACB00E4FC7401A804088002C333D8FC5DFF1258
:060ADB000B7D0CBC08ECD1
:010AE10022F2
:100A4400E4FDFC120AE2EF600D7401A804088002C0
:0C0A5400C333D8FC42050CBC08E9AF0518
:010A60002273
:10000E00EC4D6011E8497017ED33EC3304600DE4EC
:10001E00FCFFFEFD22E933E8330470F80202E81219
:10002E0002B358046009E4CC24815006285009021A
:10003E0002F22840030202EFC0E0EB4A7044B9809E
:10004E0006D0E0FB0202DEEF4E701CBD8008EBFF17
:10005E00EAFEE9FD80EBE98DF0A4FEE5F00200F783
:10006E00E9CDF9EAFEEBFFEF89F0A4FCE5F0CE89CD
:10007E00F0A42EFFE435F0CD89F0A42DFEE435F08A
:10008E008067EF4E7005BD80D780C3EF8BF0A4ACB8
:10009E00F0EE8BF0A42CFCE435F0F8EF8AF0A42CF3
:1000AE00E5F038FCE433CB8DF0A42CFCE5F03BF806
:1000BE00EE8AF0A42CFCE5F038F8E433CF89F0A4F6
:1000CE002CFCE5F038CF3400CE89F0A42FFFE5F0FC
:1000DE003EFEE433C98DF0A42EFEE5F039CD8AF054
:1000EE00A42FFFE5F03EFEE43DFD33D0E0FB5007CC
:1000FE000BBB000F0202F2EC2CFCEF33FFEE33FED3
:06010E00ED33FD0202CA00
:100114000202F2EC5D046005E8590470030202E88F
:100124001202B3580460F6EC4860F2EC7004FDFE71
:10013400FF22C860DB2481C85009C39860025006BE
:100144000202EF9850CAF582E9294B4A7005AB8246
:100154000202DE75F0007C1A7880C3EF9BEE9AED04
:1001640099400DC3EF9BFFEE9AFEED99FDE842F036
:10017400DC23ACF0D0E0FFD0E0FED0E0FDAB822089
:10018400E7101BEB60BAEC2CFCEF33FFEE33FEED13
:1001940033FD0202CAE803F830E705C0F075F00049
:1001A400EF2FFFEE33FEED33FD40B830E7C280AAF7
:1001B40074F8CC6480CCC86480C8F58204604FC3F2
:1001C400EB9FF5F0EA9E42F0E99D42F0E89C45F091
:1001D400603C501DE5825FFFE582D313CB5BCBF41B
:1001E4002B5582FB50280ABA002409B90020088044
:1001F4001DE5825BFBE582D313CF5FCFF4C3132FDE
:100204005582FF50090EBE00050DBD00010CC3EB65
:100214009FF5F0EA9E42F0E99D42F0E89C45F060CB
:0902240007CC4820E701B3EC22ED
:10022D00ED33EC33600A047003BD8004ECB2E7FCDF
:01023D00229E
:10023E0075F020800E75F010800575F0087D007E3B
:10024E00007F003392D530D50312045FEC3340109B
:10025E00EF33FFEE33FEED33FDEC33FCD5F0ED2244
:0E026E00E5F0247EA2D513CC92E7CDCEFF2280
:10027C00EDD2E7CD33EC3392D524814006E4FFFE7A
:10028C00FDFC22FCE4CFCECDCC24E0501174FF80D9
:10029C00EDC3CC13CCCD13CDCE13CECF13CF047076
:0702AC00F030D5DE02045F13
:1002B300E9D2E7C933E833F892D5EDD2E7CD33EC91
:0702C30033FC5002B2D5220A
:1002CA00EC30E7100FBF000C0EBE00080DBD000495
:1002DA000BEB6014A2D5EB13FCED92E7FD2274FF41
:1002EA00FCFDFEFF22E480F8A2D574FF13FC7D809A
:0302FA00E480EFAE
:0300000002070FE5
:0C070F00787FE4F6D8FD758134020756AF
:1002FD00BB010CE58229F582E5833AF583E02250B6
:10030D0006E92582F8E622BBFE06E92582F8E222FF
:0D031D00E58229F582E5833AF583E4932219
:10032A00EF8DF0A4A8F0CF8CF0A428CE8DF0A42EE7
:02033A00FE22A1
:10033C00BC000BBE0029EF8DF084FFADF022E4CCA5
:10034C00F875F008EF2FFFEE33FEEC33FCEE9DEC6E
:10035C00984005FCEE9DFE0FD5F0E9E4CEFD22EDB4
:10036C00F8F5F0EE8420D21CFEADF075F008EF2FFE
:10037C00FFED33FD4007985006D5F0F222C398FDEF
:05038C000FD5F0EA228C
:1003910075F008758200EF2FFFEE33FECD33CDCC23
:1003A10033CCC58233C5829BED9AEC99E5829840A6
:1003B1000CF582EE9BFEED9AFDEC99FC0FD5F0D683
:1003C100E4CEFBE4CDFAE4CCF9A88222B800C1B9AD
:1003D1000059BA002DEC8BF084CFCECDFCE5F0CBEB
:1003E100F97818EF2FFFEE33FEED33FDEC33FCEB24
:1003F10033FB10D703994004EB99FB0FD8E5E4F9DF
:10040100FA227818EF2FFFEE33FEED33FDEC33FCCB
:10041100C933C910D7059BE99A4007EC9BFCE99ABF
:10042100F90FD8E0E4C9FAE4CCFB2275F010EF2F04
:10043100FFEE33FEED33FDCC33CCC833C810D70704
:100441009BEC9AE899400AED9BFDEC9AFCE899F83F
:0E0451000FD5F0DAE4CDFBE4CCFAE4C8F922D2
:0E045F00C3E49FFFE49EFEE49DFDE49CFC22AE
:10071B0002046DE493A3F8E493A34003F68001F283
:10072B0008DFF48029E493A3F85407240CC8C333DF
:10073B00C4540F4420C8834004F456800146F6DFAE
:10074B00E4800B0102040810204080900BACE47E87
:10075B00019360BCA3FF543F30E509541FFEE493A3
:10076B00A360010ECF54C025E060A840B8E493A36A
:10077B00FAE493A3F8E493A3C8C582C8CAC583CA95
:10078B00F0A3C8C582C8CAC583CADFE9DEE780BE4D
:010BB900003B
:00000001FF
