:100AD60054656D703A004300486967683A00636D73
:0C0AE600003031323334353637383900F7
:0C0AF200020F002802080000020D0000A6
:10046D00120B2612000A120BCB120B9E120C217FBF
:10047D00647E00120BDF120BCB7BFF7A0A79D67DDF
:10048D00017F01120A3E7BFF7A0A79DC7D0F7F0125
:10049D00120A3E7BFF7A0A79DE7D017F02120A3E47
:1004AD007BFF7A0A79E47D0F7F02120A3E120C213E
:1004BD001209EF8F168E158D148C13E4FFFEFDFCC3
:1004CD00AB16AA15A914A8131201B4501E7B2D7DCD
:1004DD00077F01120C38AF16AE15AD14AC13120216
:1004ED002D8F168E158D148C1380097B2B7D077F18
:1004FD0001120C38AF16AE15AD14AC1312027CAB55
:10050D0007AA067525027D087F01120A9C7B2E7DA8
:10051D000A7F01120C387F007E407D1C7C46AB1695
:10052D00AA15A914A81312000E12027CE47B107AEE
:10053D0027F9F81203CD7525037D0B7F01120A9C57
:10054D001208A61208558E178F18AC17AD18E412A5
:10055D0002437B297A5C798F783C12000E12027C63
:10056D008E118F127C007D6412033C7C007D0A127B
:10057D00033CAB05AE11AF127C007D0A12033C7C2F
:10058D00007D0A12033C8D1FAE11AF127C007D0A57
:10059D0012033C8D20EB60057F01120A1BE51F7DC8
:1005AD00071209C07F01120A1BE5207D081209C040
:0805BD007F01120A1B0204BABF
:100A7F00E4FDFCC3ED9FEC9E5012758DFF758B9CB2
:0C0A8F00308FFDC28F0DBD00010C80E710
:010A9B002238
:01000A0022D3
:10085500C29600D296E4FF0FBF0AFCC2963097FD00
:10086500120C14309713E58CD3948C500CE58CB492
:100875008CF1E58AD394A040EAC28CE58CC39446FA
:10088500400CE58CB44616E58AD39450500FAF8CD6
:10089500EFFEAD8A7C00E42DFFEC3EFE22E4FEFF78
:0108A5002230
:100B26007F38120B707F0C120B707F06120B707FD2
:090B360001120B707F80020B70AC
:100B7000C2A7C2A6C2A58F807F01120A1BD2A77F7F
:070B800001120A1BC2A722AB
:100B8700C2A7C2A5D2A68F807F01120A1BD2A77F58
:070B970001120A1BC2A72294
:0909C000900AE793FB7A007F0125
:1009C9008F218D228A238B24E5217008E52224803A
:1009D900FF120B70E521B40108E52224C0FF120BB8
:0609E90070AF24020B8731
:0D0C1400758911E4F58CF58AD28CD28E2200
:03000B00020003ED
:07000300758C00758A0032C4
:1008A6007590FFE590F460057F0A120A1BE590F447
:1008B6006029E5902403601214701B740A2510F554
:1008C60010E4350FF50FC2A0800C74F62510F51054
:0C08D60074FF350FF50FE590B4FFFB2216
:100A1B00E4FDFCEFFBC3ED9BEC94005015E4FBFAFB
:100A2B000BBB00010AEB64784A70F50DBD00010C9D
:020A3B0080E158
:010A3D002296
:060C0500C2A58F80D2A7FA
:080C0B007F027EEFDEFEDFFC3C
:010C130022BE
:0A0C2E00C2A6120C05C2A7020C0BAF
:100A6100CFCDCFCECCCE12033C7C007D0A12033C0D
:040A7100ED2430FF41
:0A0A7500D2A6120C05C2A7020C0B5A
:100BB500AE07BE0104ED148006BE0209ED243F44D4
:060BC50080FF120C2E223D
:100BCB007F38120C2E7F0C120C2E7F06120C2E7FF0
:040BDB0001020C2ED9
:0A0C3800AC03120BB5AF04020A75FD
:060A3E008B218A228923AE
:100A4400120BB5E4FDAB21AA22A9238D8275830084
:0C0A54001202FDFF6006120A750D80E919
:010A60002273
:0C098D007F0AEA24FFFDE434FFFC7E003A
:080999008E268F278C288D2982
:1009A1007F017E00E4FBEBC39529E5286480F874A0
:0E09B1008098500AAC26AD2712032A0B80E86E
:0109BF002215
:040A9C008A238B24FA
:100AA000120BB5AA25EAD39400400D12098DAC2390
:080AB000AD24120A611A80ED69
:010AB800221B
:1008E200120BB5C3EA64809480400B7F2B120A7509
:1008F2008A388B39800E7F2D120A75C3E49BF53935
:10090200E49AF538AA37EAD39400400D12098DAC67
:0909120038AD39120A611A80EDBA
:01091B0022B9
:04091C008A3C8B3D49
:10092000120BB5AA3EEAD3940040297F1012098F1A
:10093000AC3CAD3DCFCDCFCECCCE12033CEF540F6F
:10094000FEC3940AEE5004243080022437FF120ABA
:04095000751A80D1C3
:010954002280
:040955008A418B4206
:10095900120BB5AA43EAD394004028EA24FFFDE428
:1009690034FFFC7F027E00120999AC41AD42CFCD24
:10097900CFCECCCE12033CEF54012430FF120A75BE
:030989001A80D2FF
:01098C002248
:0D0AFE00012E00013000012F000231000028
:100B9E005389F0438901758A18758CFCC28DD28CED
:070BAE00D2A9D2AFC2B922A7
:03000B0002070CDD
:10070C00C0E0C0F0C083C082C0D075D000C000C0B3
:0D071C0001C002C003C004C005C006C00734
:10072900758A18758CFC052BE52B7002052AC39474
:10073900E8E52A9403402F752A00752B00052EE55C
:100749002E943C4021752E000530E530943C40162E
:10075900753000052FE52F9418400B752F00052DD6
:10076900E52D7002052CE52D6403452C7037E53223
:10077900453170177B64FA7D01FC7F927E08120572
:10078900C50532E53270020531801A7B647A00E4CE
:10079900FDFC7F927E081205C57531007532007522
:0507A9002C00752D007D
:1007AE00D007D006D005D004D003D002D001D0009F
:0B07BE00D0D0D082D083D0F0D0E03249
:040C42007F02DFFE50
:010C4600228B
:100BDF00AD07AC06ED1DAE0470011C4E6005120C86
:040BEF004280F1222D
:0805C5008E198F1A8A1B8B1C92
:1005CD00E4F51DF51EED4C600302066FE51A151AD4
:1005DD00AE19700215194E7003020703E51D706206
:1005ED00E51EB40800505B9005FBF8282873020641
:1005FD001302061902061F02062902062F020639EA
:10060D00020643020647D290C291800AD290D2913F
:10061D008004C290D291C292C2938026C290D29190
:10062D008004C290C291D292C2938016C290C291A0
:10063D00D292D293800CC2908002D290C291C2927B
:10064D00D293E51E6407451D7006F51DF51E800845
:10065D00051EE51E7002051DAF1CAE1B120BDF0241
:10066D0005D9E51A151AAE19700215194E70030247
:10067D000703E51D7060E51EB40800505990069102
:10068D00F82828730206A90206AD0206B70206C1B4
:10069D000206C70206D10206D50206DBD290800201
:1006AD00C290C291C292D293802CC290C291D2922A
:1006BD00D2938022C290C2918004C290D291D292E4
:1006CD00C2938012C2908002D290D2918004D290B7
:1006DD00C291C292C293E51E6407451D7006F51DB9
:1006ED00F51E8008051EE51E7002051DAF1CAE1B14
:0E06FD00120BDF02066FC290C291C292C2932E
:01070B0022CB
:0D0C2100120B0C7FCC120B3F7F44020B3FE7
:1009EF00120B0C7FCC120B3F7FBE120B3F120AB9BA
:1009FF008F21120AB9EFFEE521FFFDAC06EC1202C2
:0B0A0F0043E4FBFA79807841120117E4
:010A1A0022B9
:100B0C00D2B7C2B77FF7DFFED2B77F20DFFEA2B726
:090B1C00E433FE7FF7DFFEAF06B3
:010B250022AD
:100BF300C2B77E04DEFEEF24FF92B77E18DEFED27C
:010C0300B739
:010C040022CD
:100B5800C2B77F02DFFED2B77F02DFFEA2B7E4335F
:070B6800FE7F18DFFEAF065F
:010B6F002263
:020B3F00AD0700
:100B4100E4FC7401A804088002C333D8FC5DFF12E1
:060B51000BF30CBC08ECE4
:010B5700227B
:100AB900E4FDFC120B58EF600D7401A804088002D4
:0C0AC900C333D8FC42050CBC08E9AF05A3
:010AD50022FE
:10000E00EC4D6011E8497017ED33EC3304600DE4EC
:10001E00FCFFFEFD22E933E8330470F80202E81219
:10002E0002B358046009E4CC24815006285009021A
:10003E0002F22840030202EFC0E0EB4A7044B9809E
:10004E0006D0E0FB0202DEEF4E701CBD8008EBFF17
:10005E00EAFEE9FD80EBE98DF0A4FEE5F00200F783
:10006E00E9CDF9EAFEEBFFEF89F0A4FCE5F0CE89CD
:10007E00F0A42EFFE435F0CD89F0A42DFEE435F08A
:10008E008067EF4E7005BD80D780C3EF8BF0A4ACB8
:10009E00F0EE8BF0A42CFCE435F0F8EF8AF0A42CF3
:1000AE00E5F038FCE433CB8DF0A42CFCE5F03BF806
:1000BE00EE8AF0A42CFCE5F038F8E433CF89F0A4F6
:1000CE002CFCE5F038CF3400CE89F0A42FFFE5F0FC
:1000DE003EFEE433C98DF0A42EFEE5F039CD8AF054
:1000EE00A42FFFE5F03EFEE43DFD33D0E0FB5007CC
:1000FE000BBB000F0202F2EC2CFCEF33FFEE33FED3
:06010E00ED33FD0202CA00
:100114000202F2EC5D046005E8590470030202E88F
:100124001202B3580460F6EC4860F2EC7004FDFE71
:10013400FF22C860DB2481C85009C39860025006BE
:100144000202EF9850CAF582E9294B4A7005AB8246
:100154000202DE75F0007C1A7880C3EF9BEE9AED04
:1001640099400DC3EF9BFFEE9AFEED99FDE842F036
:10017400DC23ACF0D0E0FFD0E0FED0E0FDAB822089
:10018400E7101BEB60BAEC2CFCEF33FFEE33FEED13
:1001940033FD0202CAE803F830E705C0F075F00049
:1001A400EF2FFFEE33FEED33FD40B830E7C280AAF7
:1001B40074F8CC6480CCC86480C8F58204604FC3F2
:1001C400EB9FF5F0EA9E42F0E99D42F0E89C45F091
:1001D400603C501DE5825FFFE582D313CB5BCBF41B
:1001E4002B5582FB50280ABA002409B90020088044
:1001F4001DE5825BFBE582D313CF5FCFF4C3132FDE
:100204005582FF50090EBE00050DBD00010CC3EB65
:100214009FF5F0EA9E42F0E99D42F0E89C45F060CB
:0902240007CC4820E701B3EC22ED
:10022D00ED33EC33600A047003BD8004ECB2E7FCDF
:01023D00229E
:10023E0075F020800E75F010800575F0087D007E3B
:10024E00007F003392D530D50312045FEC3340109B
:10025E00EF33FFEE33FEED33FDEC33FCD5F0ED2244
:0E026E00E5F0247EA2D513CC92E7CDCEFF2280
:10027C00EDD2E7CD33EC3392D524814006E4FFFE7A
:10028C00FDFC22FCE4CFCECDCC24E0501174FF80D9
:10029C00EDC3CC13CCCD13CDCE13CECF13CF047076
:0702AC00F030D5DE02045F13
:1002B300E9D2E7C933E833F892D5EDD2E7CD33EC91
:0702C30033FC5002B2D5220A
:1002CA00EC30E7100FBF000C0EBE00080DBD000495
:1002DA000BEB6014A2D5EB13FCED92E7FD2274FF41
:1002EA00FCFDFEFF22E480F8A2D574FF13FC7D809A
:0302FA00E480EFAE
:030000000207C92B
:0C07C900787FE4F6D8FD7581430208102B
:1002FD00BB010CE58229F582E5833AF583E02250B6
:10030D0006E92582F8E622BBFE06E92582F8E222FF
:0D031D00E58229F582E5833AF583E4932219
:10032A00EF8DF0A4A8F0CF8CF0A428CE8DF0A42EE7
:02033A00FE22A1
:10033C00BC000BBE0029EF8DF084FFADF022E4CCA5
:10034C00F875F008EF2FFFEE33FEEC33FCEE9DEC6E
:10035C00984005FCEE9DFE0FD5F0E9E4CEFD22EDB4
:10036C00F8F5F0EE8420D21CFEADF075F008EF2FFE
:10037C00FFED33FD4007985006D5F0F222C398FDEF
:05038C000FD5F0EA228C
:1003910075F008758200EF2FFFEE33FECD33CDCC23
:1003A10033CCC58233C5829BED9AEC99E5829840A6
:1003B1000CF582EE9BFEED9AFDEC99FC0FD5F0D683
:1003C100E4CEFBE4CDFAE4CCF9A88222B800C1B9AD
:1003D1000059BA002DEC8BF084CFCECDFCE5F0CBEB
:1003E100F97818EF2FFFEE33FEED33FDEC33FCEB24
:1003F10033FB10D703994004EB99FB0FD8E5E4F9DF
:10040100FA227818EF2FFFEE33FEED33FDEC33FCCB
:10041100C933C910D7059BE99A4007EC9BFCE99ABF
:10042100F90FD8E0E4C9FAE4CCFB2275F010EF2F04
:10043100FFEE33FEED33FDCC33CCC833C810D70704
:100441009BEC9AE899400AED9BFDEC9AFCE899F83F
:0E0451000FD5F0DAE4CDFBE4CCFAE4C8F922D2
:0E045F00C3E49FFFE49EFEE49DFDE49CFC22AE
:1007D50002046DE493A3F8E493A34003F68001F2C9
:1007E50008DFF48029E493A3F85407240CC8C33325
:1007F500C4540F4420C8834004F456800146F6DFF4
:10080500E4800B0102040810204080900AF2E47E87
:10081500019360BCA3FF543F30E509541FFEE493E8
:10082500A360010ECF54C025E060A840B8E493A3AF
:10083500FAE493A3F8E493A3C8C582C8CAC583CADA
:10084500F0A3C8C582C8CAC583CADFE9DEE780BE92
:010B0B0000E9
:00000001FF
